{
  "_format": "hh-sol-artifact-1",
  "contractName": "AerospaceSupplyChain",
  "sourceName": "contracts/AeroSpaceSupplyChain.sol",
  "abi": [
    {
      "inputs": [],
      "stateMutability": "nonpayable",
      "type": "constructor"
    },
    {
      "anonymous": false,
      "inputs": [
        {
          "indexed": true,
          "internalType": "uint256",
          "name": "id",
          "type": "uint256"
        },
        {
          "indexed": false,
          "internalType": "address",
          "name": "approvedBy",
          "type": "address"
        }
      ],
      "name": "ComponentApproved",
      "type": "event"
    },
    {
      "anonymous": false,
      "inputs": [
        {
          "indexed": true,
          "internalType": "uint256",
          "name": "id",
          "type": "uint256"
        },
        {
          "indexed": false,
          "internalType": "address",
          "name": "creator",
          "type": "address"
        }
      ],
      "name": "ComponentCreated",
      "type": "event"
    },
    {
      "anonymous": false,
      "inputs": [
        {
          "indexed": true,
          "internalType": "uint256",
          "name": "id",
          "type": "uint256"
        },
        {
          "indexed": false,
          "internalType": "address",
          "name": "deliveredBy",
          "type": "address"
        }
      ],
      "name": "ComponentDelivered",
      "type": "event"
    },
    {
      "anonymous": false,
      "inputs": [
        {
          "indexed": true,
          "internalType": "uint256",
          "name": "id",
          "type": "uint256"
        },
        {
          "indexed": false,
          "internalType": "address",
          "name": "installedBy",
          "type": "address"
        }
      ],
      "name": "ComponentInstalled",
      "type": "event"
    },
    {
      "anonymous": false,
      "inputs": [
        {
          "indexed": true,
          "internalType": "uint256",
          "name": "id",
          "type": "uint256"
        },
        {
          "indexed": false,
          "internalType": "address",
          "name": "owner",
          "type": "address"
        },
        {
          "indexed": false,
          "internalType": "address",
          "name": "manufacturer",
          "type": "address"
        },
        {
          "indexed": false,
          "internalType": "string",
          "name": "name",
          "type": "string"
        }
      ],
      "name": "ComponentOrdered",
      "type": "event"
    },
    {
      "anonymous": false,
      "inputs": [
        {
          "indexed": true,
          "internalType": "uint256",
          "name": "id",
          "type": "uint256"
        },
        {
          "indexed": false,
          "internalType": "address",
          "name": "by",
          "type": "address"
        }
      ],
      "name": "ComponentReady",
      "type": "event"
    },
    {
      "anonymous": false,
      "inputs": [
        {
          "indexed": true,
          "internalType": "uint256",
          "name": "id",
          "type": "uint256"
        },
        {
          "indexed": false,
          "internalType": "address",
          "name": "lab",
          "type": "address"
        }
      ],
      "name": "LabAssigned",
      "type": "event"
    },
    {
      "anonymous": false,
      "inputs": [
        {
          "indexed": true,
          "internalType": "address",
          "name": "to",
          "type": "address"
        },
        {
          "indexed": false,
          "internalType": "uint256",
          "name": "amount",
          "type": "uint256"
        },
        {
          "indexed": false,
          "internalType": "uint256",
          "name": "timestamp",
          "type": "uint256"
        }
      ],
      "name": "PaymentMade",
      "type": "event"
    },
    {
      "anonymous": false,
      "inputs": [
        {
          "indexed": true,
          "internalType": "uint256",
          "name": "id",
          "type": "uint256"
        },
        {
          "indexed": false,
          "internalType": "enum AerospaceSupplyChain.Status",
          "name": "status",
          "type": "uint8"
        },
        {
          "indexed": false,
          "internalType": "address",
          "name": "by",
          "type": "address"
        },
        {
          "indexed": false,
          "internalType": "uint256",
          "name": "timestamp",
          "type": "uint256"
        }
      ],
      "name": "StatusUpdated",
      "type": "event"
    },
    {
      "anonymous": false,
      "inputs": [
        {
          "indexed": true,
          "internalType": "uint256",
          "name": "id",
          "type": "uint256"
        },
        {
          "indexed": false,
          "internalType": "string",
          "name": "ipfsHash",
          "type": "string"
        }
      ],
      "name": "TestReportAdded",
      "type": "event"
    },
    {
      "inputs": [
        {
          "internalType": "uint256",
          "name": "id",
          "type": "uint256"
        },
        {
          "internalType": "string",
          "name": "ipfsHash",
          "type": "string"
        }
      ],
      "name": "addTestReport",
      "outputs": [],
      "stateMutability": "nonpayable",
      "type": "function"
    },
    {
      "inputs": [
        {
          "internalType": "uint256",
          "name": "id",
          "type": "uint256"
        }
      ],
      "name": "approveComponent",
      "outputs": [],
      "stateMutability": "nonpayable",
      "type": "function"
    },
    {
      "inputs": [
        {
          "internalType": "uint256",
          "name": "id",
          "type": "uint256"
        },
        {
          "internalType": "address",
          "name": "lab",
          "type": "address"
        }
      ],
      "name": "assignLab",
      "outputs": [],
      "stateMutability": "nonpayable",
      "type": "function"
    },
    {
      "inputs": [
        {
          "internalType": "address",
          "name": "user",
          "type": "address"
        },
        {
          "internalType": "string",
          "name": "role",
          "type": "string"
        }
      ],
      "name": "assignRole",
      "outputs": [],
      "stateMutability": "nonpayable",
      "type": "function"
    },
    {
      "inputs": [
        {
          "internalType": "uint256",
          "name": "",
          "type": "uint256"
        },
        {
          "internalType": "uint256",
          "name": "",
          "type": "uint256"
        }
      ],
      "name": "componentHistory",
      "outputs": [
        {
          "internalType": "enum AerospaceSupplyChain.Status",
          "name": "status",
          "type": "uint8"
        },
        {
          "internalType": "address",
          "name": "updatedBy",
          "type": "address"
        },
        {
          "internalType": "uint256",
          "name": "timestamp",
          "type": "uint256"
        }
      ],
      "stateMutability": "view",
      "type": "function"
    },
    {
      "inputs": [
        {
          "internalType": "uint256",
          "name": "",
          "type": "uint256"
        }
      ],
      "name": "components",
      "outputs": [
        {
          "internalType": "string",
          "name": "partName",
          "type": "string"
        },
        {
          "internalType": "address",
          "name": "manufacturer",
          "type": "address"
        },
        {
          "internalType": "address",
          "name": "lab",
          "type": "address"
        },
        {
          "internalType": "enum AerospaceSupplyChain.Status",
          "name": "status",
          "type": "uint8"
        },
        {
          "internalType": "string",
          "name": "testReportHash",
          "type": "string"
        },
        {
          "internalType": "uint256",
          "name": "createdAt",
          "type": "uint256"
        }
      ],
      "stateMutability": "view",
      "type": "function"
    },
    {
      "inputs": [
        {
          "internalType": "uint256",
          "name": "id",
          "type": "uint256"
        }
      ],
      "name": "createComponent",
      "outputs": [],
      "stateMutability": "nonpayable",
      "type": "function"
    },
    {
      "inputs": [
        {
          "internalType": "uint256",
          "name": "id",
          "type": "uint256"
        }
      ],
      "name": "getComponent",
      "outputs": [
        {
          "internalType": "string",
          "name": "",
          "type": "string"
        },
        {
          "internalType": "address",
          "name": "",
          "type": "address"
        },
        {
          "internalType": "address",
          "name": "",
          "type": "address"
        },
        {
          "internalType": "enum AerospaceSupplyChain.Status",
          "name": "",
          "type": "uint8"
        },
        {
          "internalType": "string",
          "name": "",
          "type": "string"
        },
        {
          "internalType": "uint256",
          "name": "",
          "type": "uint256"
        }
      ],
      "stateMutability": "view",
      "type": "function"
    },
    {
      "inputs": [
        {
          "internalType": "uint256",
          "name": "id",
          "type": "uint256"
        }
      ],
      "name": "getHistory",
      "outputs": [
        {
          "components": [
            {
              "internalType": "enum AerospaceSupplyChain.Status",
              "name": "status",
              "type": "uint8"
            },
            {
              "internalType": "address",
              "name": "updatedBy",
              "type": "address"
            },
            {
              "internalType": "uint256",
              "name": "timestamp",
              "type": "uint256"
            }
          ],
          "internalType": "struct AerospaceSupplyChain.History[]",
          "name": "",
          "type": "tuple[]"
        }
      ],
      "stateMutability": "view",
      "type": "function"
    },
    {
      "inputs": [
        {
          "internalType": "uint256",
          "name": "id",
          "type": "uint256"
        }
      ],
      "name": "installComponent",
      "outputs": [],
      "stateMutability": "nonpayable",
      "type": "function"
    },
    {
      "inputs": [
        {
          "internalType": "uint256",
          "name": "id",
          "type": "uint256"
        }
      ],
      "name": "markDeliveredComponent",
      "outputs": [],
      "stateMutability": "nonpayable",
      "type": "function"
    },
    {
      "inputs": [
        {
          "internalType": "uint256",
          "name": "id",
          "type": "uint256"
        }
      ],
      "name": "markReady",
      "outputs": [],
      "stateMutability": "nonpayable",
      "type": "function"
    },
    {
      "inputs": [],
      "name": "nextId",
      "outputs": [
        {
          "internalType": "uint256",
          "name": "",
          "type": "uint256"
        }
      ],
      "stateMutability": "view",
      "type": "function"
    },
    {
      "inputs": [
        {
          "internalType": "string",
          "name": "name",
          "type": "string"
        },
        {
          "internalType": "address",
          "name": "manufacturer",
          "type": "address"
        }
      ],
      "name": "orderedComponent",
      "outputs": [],
      "stateMutability": "nonpayable",
      "type": "function"
    },
    {
      "inputs": [],
      "name": "owner",
      "outputs": [
        {
          "internalType": "address",
          "name": "",
          "type": "address"
        }
      ],
      "stateMutability": "view",
      "type": "function"
    },
    {
      "inputs": [
        {
          "internalType": "address",
          "name": "",
          "type": "address"
        }
      ],
      "name": "roles",
      "outputs": [
        {
          "internalType": "string",
          "name": "",
          "type": "string"
        }
      ],
      "stateMutability": "view",
      "type": "function"
    },
    {
      "stateMutability": "payable",
      "type": "receive"
    }
  ],
  "bytecode": "0x608060405234801561001057600080fd5b50336000806101000a81548173ffffffffffffffffffffffffffffffffffffffff021916908373ffffffffffffffffffffffffffffffffffffffff1602179055506040518060400160405280600581526020017f6f776e6572000000000000000000000000000000000000000000000000000000815250600460003373ffffffffffffffffffffffffffffffffffffffff1673ffffffffffffffffffffffffffffffffffffffff16815260200190815260200160002090816100d29190610328565b506103fa565b600081519050919050565b7f4e487b7100000000000000000000000000000000000000000000000000000000600052604160045260246000fd5b7f4e487b7100000000000000000000000000000000000000000000000000000000600052602260045260246000fd5b6000600282049050600182168061015957607f821691505b60208210810361016c5761016b610112565b5b50919050565b60008190508160005260206000209050919050565b60006020601f8301049050919050565b600082821b905092915050565b6000600883026101d47fffffffffffffffffffffffffffffffffffffffffffffffffffffffffffffffff82610197565b6101de8683610197565b95508019841693508086168417925050509392505050565b6000819050919050565b6000819050919050565b600061022561022061021b846101f6565b610200565b6101f6565b9050919050565b6000819050919050565b61023f8361020a565b61025361024b8261022c565b8484546101a4565b825550505050565b600090565b61026861025b565b610273818484610236565b505050565b5b818110156102975761028c600082610260565b600181019050610279565b5050565b601f8211156102dc576102ad81610172565b6102b684610187565b810160208510156102c5578190505b6102d96102d185610187565b830182610278565b50505b505050565b600082821c905092915050565b60006102ff600019846008026102e1565b1980831691505092915050565b600061031883836102ee565b9150826002028217905092915050565b610331826100d8565b67ffffffffffffffff81111561034a576103496100e3565b5b6103548254610141565b61035f82828561029b565b600060209050601f8311600181146103925760008415610380578287015190505b61038a858261030c565b8655506103f2565b601f1984166103a086610172565b60005b828110156103c8578489015182556001820191506020850194506020810190506103a3565b868310156103e557848901516103e1601f8916826102ee565b8355505b6001600288020188555050505b505050505050565b613ad8806104096000396000f3fe6080604052600436106100f75760003560e01c80638da5cb5b1161008a578063c56420cc11610059578063c56420cc14610336578063c5d574fe1461035f578063c8691b2a146103a1578063cc6e23fe146103de576100fe565b80638da5cb5b1461027c5780639176e3df146102a757806399374642146102d0578063b7dfcbee1461030d576100fe565b80634f27da18116100c65780634f27da18146101a757806361b8ce8c146101e95780637e3427ef14610214578063809587c214610253576100fe565b80631e1b56591461010357806320a4e2ac1461012c57806330e0e61c1461015557806331653d7c1461017e576100fe565b366100fe57005b600080fd5b34801561010f57600080fd5b5061012a600480360381019061012591906128a8565b610407565b005b34801561013857600080fd5b50610153600480360381019061014e91906128a8565b6107a4565b005b34801561016157600080fd5b5061017c60048036038101906101779190612933565b610b41565b005b34801561018a57600080fd5b506101a560048036038101906101a091906128a8565b610dd0565b005b3480156101b357600080fd5b506101ce60048036038101906101c991906128a8565b61110f565b6040516101e096959493929190612a98565b60405180910390f35b3480156101f557600080fd5b506101fe611384565b60405161020b9190612b07565b60405180910390f35b34801561022057600080fd5b5061023b60048036038101906102369190612b22565b61138a565b60405161024a93929190612b62565b60405180910390f35b34801561025f57600080fd5b5061027a600480360381019061027591906128a8565b6113fe565b005b34801561028857600080fd5b5061029161179b565b60405161029e9190612b99565b60405180910390f35b3480156102b357600080fd5b506102ce60048036038101906102c991906128a8565b6117bf565b005b3480156102dc57600080fd5b506102f760048036038101906102f29190612bb4565b611b1f565b6040516103049190612be1565b60405180910390f35b34801561031957600080fd5b50610334600480360381019061032f9190612d38565b611bbf565b005b34801561034257600080fd5b5061035d60048036038101906103589190612d94565b611c9e565b005b34801561036b57600080fd5b50610386600480360381019061038191906128a8565b6120e1565b60405161039896959493929190612a98565b60405180910390f35b3480156103ad57600080fd5b506103c860048036038101906103c391906128a8565b61227a565b6040516103d59190612f0e565b60405180910390f35b3480156103ea57600080fd5b5061040560048036038101906104009190612f30565b612387565b005b6040518060400160405280600c81526020017f6d616e75666163747572657200000000000000000000000000000000000000008152508080519060200120600460003373ffffffffffffffffffffffffffffffffffffffff1673ffffffffffffffffffffffffffffffffffffffff168152602001908152602001600020604051610491919061308f565b6040518091039020146104d9576040517f08c379a00000000000000000000000000000000000000000000000000000000081526004016104d0906130f2565b60405180910390fd5b60006002600084815260200190815260200160002090503373ffffffffffffffffffffffffffffffffffffffff168160010160009054906101000a900473ffffffffffffffffffffffffffffffffffffffff1673ffffffffffffffffffffffffffffffffffffffff1614610582576040517f08c379a00000000000000000000000000000000000000000000000000000000081526004016105799061315e565b60405180910390fd5b6002600681111561059657610595612a12565b5b8160020160149054906101000a900460ff1660068111156105ba576105b9612a12565b5b146105fa576040517f08c379a00000000000000000000000000000000000000000000000000000000081526004016105f1906131ca565b60405180910390fd5b60038160020160146101000a81548160ff0219169083600681111561062257610621612a12565b5b02179055506003600084815260200190815260200160002060405180606001604052806003600681111561065957610658612a12565b5b81526020013373ffffffffffffffffffffffffffffffffffffffff16815260200142815250908060018154018082558091505060019003906000526020600020906002020160009091909190915060008201518160000160006101000a81548160ff021916908360068111156106d2576106d1612a12565b5b021790555060208201518160000160016101000a81548173ffffffffffffffffffffffffffffffffffffffff021916908373ffffffffffffffffffffffffffffffffffffffff160217905550604082015181600101555050827f9b27c489ee388dfad77f87244a6e6d7fbbe87e37950bf1a86b887d56f37aae7f3360405161075a9190612b99565b60405180910390a2827fa619d69295adf1c8963ada41a1a99b13e22a9c056ec926d79b84b3d65a06a30a6003334260405161079793929190612b62565b60405180910390a2505050565b6040518060400160405280600c81526020017f6d616e75666163747572657200000000000000000000000000000000000000008152508080519060200120600460003373ffffffffffffffffffffffffffffffffffffffff1673ffffffffffffffffffffffffffffffffffffffff16815260200190815260200160002060405161082e919061308f565b604051809103902014610876576040517f08c379a000000000000000000000000000000000000000000000000000000000815260040161086d906130f2565b60405180910390fd5b60006002600084815260200190815260200160002090503373ffffffffffffffffffffffffffffffffffffffff168160010160009054906101000a900473ffffffffffffffffffffffffffffffffffffffff1673ffffffffffffffffffffffffffffffffffffffff161461091f576040517f08c379a000000000000000000000000000000000000000000000000000000000815260040161091690613236565b60405180910390fd5b6000600681111561093357610932612a12565b5b8160020160149054906101000a900460ff16600681111561095757610956612a12565b5b14610997576040517f08c379a000000000000000000000000000000000000000000000000000000000815260040161098e906132a2565b60405180910390fd5b60018160020160146101000a81548160ff021916908360068111156109bf576109be612a12565b5b0217905550600360008481526020019081526020016000206040518060600160405280600160068111156109f6576109f5612a12565b5b81526020013373ffffffffffffffffffffffffffffffffffffffff16815260200142815250908060018154018082558091505060019003906000526020600020906002020160009091909190915060008201518160000160006101000a81548160ff02191690836006811115610a6f57610a6e612a12565b5b021790555060208201518160000160016101000a81548173ffffffffffffffffffffffffffffffffffffffff021916908373ffffffffffffffffffffffffffffffffffffffff160217905550604082015181600101555050827f0393d47abee40bed4c1d31b61a9ba0754e286c83f2b793235053fd777742341233604051610af79190612b99565b60405180910390a2827fa619d69295adf1c8963ada41a1a99b13e22a9c056ec926d79b84b3d65a06a30a60013342604051610b3493929190612b62565b60405180910390a2505050565b6040518060400160405280600c81526020017f6d616e75666163747572657200000000000000000000000000000000000000008152508080519060200120600460003373ffffffffffffffffffffffffffffffffffffffff1673ffffffffffffffffffffffffffffffffffffffff168152602001908152602001600020604051610bcb919061308f565b604051809103902014610c13576040517f08c379a0000000000000000000000000000000000000000000000000000000008152600401610c0a906130f2565b60405180910390fd5b60006002600085815260200190815260200160002090503373ffffffffffffffffffffffffffffffffffffffff168160010160009054906101000a900473ffffffffffffffffffffffffffffffffffffffff1673ffffffffffffffffffffffffffffffffffffffff1614610cbc576040517f08c379a0000000000000000000000000000000000000000000000000000000008152600401610cb390613236565b60405180910390fd5b600073ffffffffffffffffffffffffffffffffffffffff168160020160009054906101000a900473ffffffffffffffffffffffffffffffffffffffff1673ffffffffffffffffffffffffffffffffffffffff1614610d4f576040517f08c379a0000000000000000000000000000000000000000000000000000000008152600401610d469061330e565b60405180910390fd5b828160020160006101000a81548173ffffffffffffffffffffffffffffffffffffffff021916908373ffffffffffffffffffffffffffffffffffffffff160217905550837f8942f41a91a590deeb2dbe039e1dcf9a3ccda767f4f0acf057e4bbe7900efc4384604051610dc29190612b99565b60405180910390a250505050565b6040518060400160405280600581526020017f6f776e65720000000000000000000000000000000000000000000000000000008152508080519060200120600460003373ffffffffffffffffffffffffffffffffffffffff1673ffffffffffffffffffffffffffffffffffffffff168152602001908152602001600020604051610e5a919061308f565b604051809103902014610ea2576040517f08c379a0000000000000000000000000000000000000000000000000000000008152600401610e99906130f2565b60405180910390fd5b600060026000848152602001908152602001600020905060056006811115610ecd57610ecc612a12565b5b8160020160149054906101000a900460ff166006811115610ef157610ef0612a12565b5b14610f31576040517f08c379a0000000000000000000000000000000000000000000000000000000008152600401610f289061337a565b60405180910390fd5b60068160020160146101000a81548160ff02191690836006811115610f5957610f58612a12565b5b0217905550600360008481526020019081526020016000206040518060600160405280600680811115610f8f57610f8e612a12565b5b81526020013373ffffffffffffffffffffffffffffffffffffffff16815260200142815250908060018154018082558091505060019003906000526020600020906002020160009091909190915060008201518160000160006101000a81548160ff0219169083600681111561100857611007612a12565b5b021790555060208201518160000160016101000a81548173ffffffffffffffffffffffffffffffffffffffff021916908373ffffffffffffffffffffffffffffffffffffffff160217905550604082015181600101555050827f0180333654f42b3a0d6e1e5d67a10ec2aa4d282d0d85f9843cc551c44c980ee4336040516110909190612b99565b60405180910390a2827fa619d69295adf1c8963ada41a1a99b13e22a9c056ec926d79b84b3d65a06a30a600633426040516110cd93929190612b62565b60405180910390a261110a8160010160009054906101000a900473ffffffffffffffffffffffffffffffffffffffff1666470de4df820000612780565b505050565b606060008060006060600080600260008981526020019081526020016000206040518060c001604052908160008201805461114990612fbb565b80601f016020809104026020016040519081016040528092919081815260200182805461117590612fbb565b80156111c25780601f10611197576101008083540402835291602001916111c2565b820191906000526020600020905b8154815290600101906020018083116111a557829003601f168201915b505050505081526020016001820160009054906101000a900473ffffffffffffffffffffffffffffffffffffffff1673ffffffffffffffffffffffffffffffffffffffff1673ffffffffffffffffffffffffffffffffffffffff1681526020016002820160009054906101000a900473ffffffffffffffffffffffffffffffffffffffff1673ffffffffffffffffffffffffffffffffffffffff1673ffffffffffffffffffffffffffffffffffffffff1681526020016002820160149054906101000a900460ff16600681111561129c5761129b612a12565b5b60068111156112ae576112ad612a12565b5b81526020016003820180546112c290612fbb565b80601f01602080910402602001604051908101604052809291908181526020018280546112ee90612fbb565b801561133b5780601f106113105761010080835404028352916020019161133b565b820191906000526020600020905b81548152906001019060200180831161131e57829003601f168201915b505050505081526020016004820154815250509050806000015181602001518260400151836060015184608001518560a001519650965096509650965096505091939550919395565b60015481565b600360205281600052604060002081815481106113a657600080fd5b9060005260206000209060020201600091509150508060000160009054906101000a900460ff16908060000160019054906101000a900473ffffffffffffffffffffffffffffffffffffffff16908060010154905083565b6040518060400160405280600c81526020017f6d616e75666163747572657200000000000000000000000000000000000000008152508080519060200120600460003373ffffffffffffffffffffffffffffffffffffffff1673ffffffffffffffffffffffffffffffffffffffff168152602001908152602001600020604051611488919061308f565b6040518091039020146114d0576040517f08c379a00000000000000000000000000000000000000000000000000000000081526004016114c7906130f2565b60405180910390fd5b60006002600084815260200190815260200160002090503373ffffffffffffffffffffffffffffffffffffffff168160010160009054906101000a900473ffffffffffffffffffffffffffffffffffffffff1673ffffffffffffffffffffffffffffffffffffffff1614611579576040517f08c379a000000000000000000000000000000000000000000000000000000000815260040161157090613236565b60405180910390fd5b6004600681111561158d5761158c612a12565b5b8160020160149054906101000a900460ff1660068111156115b1576115b0612a12565b5b146115f1576040517f08c379a00000000000000000000000000000000000000000000000000000000081526004016115e89061340c565b60405180910390fd5b60058160020160146101000a81548160ff0219169083600681111561161957611618612a12565b5b0217905550600360008481526020019081526020016000206040518060600160405280600560068111156116505761164f612a12565b5b81526020013373ffffffffffffffffffffffffffffffffffffffff16815260200142815250908060018154018082558091505060019003906000526020600020906002020160009091909190915060008201518160000160006101000a81548160ff021916908360068111156116c9576116c8612a12565b5b021790555060208201518160000160016101000a81548173ffffffffffffffffffffffffffffffffffffffff021916908373ffffffffffffffffffffffffffffffffffffffff160217905550604082015181600101555050827f7d090b6d88e2b5a9bab274614f69acac544b83a4f9a188cf4af22890fb77b648336040516117519190612b99565b60405180910390a2827fa619d69295adf1c8963ada41a1a99b13e22a9c056ec926d79b84b3d65a06a30a6005334260405161178e93929190612b62565b60405180910390a2505050565b60008054906101000a900473ffffffffffffffffffffffffffffffffffffffff1681565b6040518060400160405280600981526020017f696e7374616c6c657200000000000000000000000000000000000000000000008152508080519060200120600460003373ffffffffffffffffffffffffffffffffffffffff1673ffffffffffffffffffffffffffffffffffffffff168152602001908152602001600020604051611849919061308f565b604051809103902014611891576040517f08c379a0000000000000000000000000000000000000000000000000000000008152600401611888906130f2565b60405180910390fd5b60015482106118d5576040517f08c379a00000000000000000000000000000000000000000000000000000000081526004016118cc90613478565b60405180910390fd5b600060026000848152602001908152602001600020905060036006811115611900576118ff612a12565b5b8160020160149054906101000a900460ff16600681111561192457611923612a12565b5b14611964576040517f08c379a000000000000000000000000000000000000000000000000000000000815260040161195b906134e4565b60405180910390fd5b60048160020160146101000a81548160ff0219169083600681111561198c5761198b612a12565b5b0217905550600360008481526020019081526020016000206040518060600160405280600460068111156119c3576119c2612a12565b5b81526020013373ffffffffffffffffffffffffffffffffffffffff16815260200142815250908060018154018082558091505060019003906000526020600020906002020160009091909190915060008201518160000160006101000a81548160ff02191690836006811115611a3c57611a3b612a12565b5b021790555060208201518160000160016101000a81548173ffffffffffffffffffffffffffffffffffffffff021916908373ffffffffffffffffffffffffffffffffffffffff160217905550604082015181600101555050827f90853cc7a5f419a1c75565e5f4c66ab537a557935d630e0f5b0aca82f7f3546133604051611ac49190612b99565b60405180910390a2827fa619d69295adf1c8963ada41a1a99b13e22a9c056ec926d79b84b3d65a06a30a60043342604051611b0193929190612b62565b60405180910390a2611b1a33662386f26fc10000612780565b505050565b60046020528060005260406000206000915090508054611b3e90612fbb565b80601f0160208091040260200160405190810160405280929190818152602001828054611b6a90612fbb565b8015611bb75780601f10611b8c57610100808354040283529160200191611bb7565b820191906000526020600020905b815481529060010190602001808311611b9a57829003601f168201915b505050505081565b60008054906101000a900473ffffffffffffffffffffffffffffffffffffffff1673ffffffffffffffffffffffffffffffffffffffff163373ffffffffffffffffffffffffffffffffffffffff1614611c4d576040517f08c379a0000000000000000000000000000000000000000000000000000000008152600401611c4490613550565b60405180910390fd5b80600460008473ffffffffffffffffffffffffffffffffffffffff1673ffffffffffffffffffffffffffffffffffffffff1681526020019081526020016000209081611c99919061371c565b505050565b6040518060400160405280600381526020017f6c616200000000000000000000000000000000000000000000000000000000008152508080519060200120600460003373ffffffffffffffffffffffffffffffffffffffff1673ffffffffffffffffffffffffffffffffffffffff168152602001908152602001600020604051611d28919061308f565b604051809103902014611d70576040517f08c379a0000000000000000000000000000000000000000000000000000000008152600401611d67906130f2565b60405180910390fd5b6000600260008581526020019081526020016000209050600073ffffffffffffffffffffffffffffffffffffffff168160020160009054906101000a900473ffffffffffffffffffffffffffffffffffffffff1673ffffffffffffffffffffffffffffffffffffffff1603611e1a576040517f08c379a0000000000000000000000000000000000000000000000000000000008152600401611e119061383a565b60405180910390fd5b3373ffffffffffffffffffffffffffffffffffffffff168160020160009054906101000a900473ffffffffffffffffffffffffffffffffffffffff1673ffffffffffffffffffffffffffffffffffffffff1614611eac576040517f08c379a0000000000000000000000000000000000000000000000000000000008152600401611ea3906138a6565b60405180910390fd5b60016006811115611ec057611ebf612a12565b5b8160020160149054906101000a900460ff166006811115611ee457611ee3612a12565b5b14611f24576040517f08c379a0000000000000000000000000000000000000000000000000000000008152600401611f1b90613938565b60405180910390fd5b82816003019081611f35919061371c565b5060028160020160146101000a81548160ff02191690836006811115611f5e57611f5d612a12565b5b021790555060036000858152602001908152602001600020604051806060016040528060026006811115611f9557611f94612a12565b5b81526020013373ffffffffffffffffffffffffffffffffffffffff16815260200142815250908060018154018082558091505060019003906000526020600020906002020160009091909190915060008201518160000160006101000a81548160ff0219169083600681111561200e5761200d612a12565b5b021790555060208201518160000160016101000a81548173ffffffffffffffffffffffffffffffffffffffff021916908373ffffffffffffffffffffffffffffffffffffffff160217905550604082015181600101555050837ffeb5f97f185e2d7ee275043c95253e4db3919f252aceff7e72df54fce03fcbab846040516120969190612be1565b60405180910390a2837fa619d69295adf1c8963ada41a1a99b13e22a9c056ec926d79b84b3d65a06a30a600233426040516120d393929190612b62565b60405180910390a250505050565b600260205280600052604060002060009150905080600001805461210490612fbb565b80601f016020809104026020016040519081016040528092919081815260200182805461213090612fbb565b801561217d5780601f106121525761010080835404028352916020019161217d565b820191906000526020600020905b81548152906001019060200180831161216057829003601f168201915b5050505050908060010160009054906101000a900473ffffffffffffffffffffffffffffffffffffffff16908060020160009054906101000a900473ffffffffffffffffffffffffffffffffffffffff16908060020160149054906101000a900460ff16908060030180546121f190612fbb565b80601f016020809104026020016040519081016040528092919081815260200182805461221d90612fbb565b801561226a5780601f1061223f5761010080835404028352916020019161226a565b820191906000526020600020905b81548152906001019060200180831161224d57829003601f168201915b5050505050908060040154905086565b606060036000838152602001908152602001600020805480602002602001604051908101604052809291908181526020016000905b8282101561237c57838290600052602060002090600202016040518060600160405290816000820160009054906101000a900460ff1660068111156122f7576122f6612a12565b5b600681111561230957612308612a12565b5b81526020016000820160019054906101000a900473ffffffffffffffffffffffffffffffffffffffff1673ffffffffffffffffffffffffffffffffffffffff1673ffffffffffffffffffffffffffffffffffffffff168152602001600182015481525050815260200190600101906122af565b505050509050919050565b6040518060400160405280600581526020017f6f776e65720000000000000000000000000000000000000000000000000000008152508080519060200120600460003373ffffffffffffffffffffffffffffffffffffffff1673ffffffffffffffffffffffffffffffffffffffff168152602001908152602001600020604051612411919061308f565b604051809103902014612459576040517f08c379a0000000000000000000000000000000000000000000000000000000008152600401612450906130f2565b60405180910390fd5b6040518060c001604052808481526020018373ffffffffffffffffffffffffffffffffffffffff168152602001600073ffffffffffffffffffffffffffffffffffffffff168152602001600060068111156124b7576124b6612a12565b5b81526020016040518060200160405280600081525081526020014281525060026000600154815260200190815260200160002060008201518160000190816124ff919061371c565b5060208201518160010160006101000a81548173ffffffffffffffffffffffffffffffffffffffff021916908373ffffffffffffffffffffffffffffffffffffffff16021790555060408201518160020160006101000a81548173ffffffffffffffffffffffffffffffffffffffff021916908373ffffffffffffffffffffffffffffffffffffffff16021790555060608201518160020160146101000a81548160ff021916908360068111156125b9576125b8612a12565b5b021790555060808201518160030190816125d3919061371c565b5060a0820151816004015590505060036000600154815260200190815260200160002060405180606001604052806000600681111561261557612614612a12565b5b81526020013373ffffffffffffffffffffffffffffffffffffffff16815260200142815250908060018154018082558091505060019003906000526020600020906002020160009091909190915060008201518160000160006101000a81548160ff0219169083600681111561268e5761268d612a12565b5b021790555060208201518160000160016101000a81548173ffffffffffffffffffffffffffffffffffffffff021916908373ffffffffffffffffffffffffffffffffffffffff1602179055506040820151816001015550506001547fa133160ba8f1517c17d78c65d88d1eeba5e49df28fe1c610d526995b9f6e8ffd33848660405161271c93929190613958565b60405180910390a26001547fa619d69295adf1c8963ada41a1a99b13e22a9c056ec926d79b84b3d65a06a30a6000334260405161275b93929190612b62565b60405180910390a260016000815480929190612776906139c5565b9190505550505050565b804710156127c3576040517f08c379a00000000000000000000000000000000000000000000000000000000081526004016127ba90613a59565b60405180910390fd5b8173ffffffffffffffffffffffffffffffffffffffff166108fc829081150290604051600060405180830381858888f19350505050158015612809573d6000803e3d6000fd5b508173ffffffffffffffffffffffffffffffffffffffff167fc65a4e529c0450a515882508bea7ee3485fbfdf8436e0bd13dc38dfbc859b1cb8242604051612852929190613a79565b60405180910390a25050565b6000604051905090565b600080fd5b600080fd5b6000819050919050565b61288581612872565b811461289057600080fd5b50565b6000813590506128a28161287c565b92915050565b6000602082840312156128be576128bd612868565b5b60006128cc84828501612893565b91505092915050565b600073ffffffffffffffffffffffffffffffffffffffff82169050919050565b6000612900826128d5565b9050919050565b612910816128f5565b811461291b57600080fd5b50565b60008135905061292d81612907565b92915050565b6000806040838503121561294a57612949612868565b5b600061295885828601612893565b92505060206129698582860161291e565b9150509250929050565b600081519050919050565b600082825260208201905092915050565b60005b838110156129ad578082015181840152602081019050612992565b60008484015250505050565b6000601f19601f8301169050919050565b60006129d582612973565b6129df818561297e565b93506129ef81856020860161298f565b6129f8816129b9565b840191505092915050565b612a0c816128f5565b82525050565b7f4e487b7100000000000000000000000000000000000000000000000000000000600052602160045260246000fd5b60078110612a5257612a51612a12565b5b50565b6000819050612a6382612a41565b919050565b6000612a7382612a55565b9050919050565b612a8381612a68565b82525050565b612a9281612872565b82525050565b600060c0820190508181036000830152612ab281896129ca565b9050612ac16020830188612a03565b612ace6040830187612a03565b612adb6060830186612a7a565b8181036080830152612aed81856129ca565b9050612afc60a0830184612a89565b979650505050505050565b6000602082019050612b1c6000830184612a89565b92915050565b60008060408385031215612b3957612b38612868565b5b6000612b4785828601612893565b9250506020612b5885828601612893565b9150509250929050565b6000606082019050612b776000830186612a7a565b612b846020830185612a03565b612b916040830184612a89565b949350505050565b6000602082019050612bae6000830184612a03565b92915050565b600060208284031215612bca57612bc9612868565b5b6000612bd88482850161291e565b91505092915050565b60006020820190508181036000830152612bfb81846129ca565b905092915050565b600080fd5b600080fd5b7f4e487b7100000000000000000000000000000000000000000000000000000000600052604160045260246000fd5b612c45826129b9565b810181811067ffffffffffffffff82111715612c6457612c63612c0d565b5b80604052505050565b6000612c7761285e565b9050612c838282612c3c565b919050565b600067ffffffffffffffff821115612ca357612ca2612c0d565b5b612cac826129b9565b9050602081019050919050565b82818337600083830152505050565b6000612cdb612cd684612c88565b612c6d565b905082815260208101848484011115612cf757612cf6612c08565b5b612d02848285612cb9565b509392505050565b600082601f830112612d1f57612d1e612c03565b5b8135612d2f848260208601612cc8565b91505092915050565b60008060408385031215612d4f57612d4e612868565b5b6000612d5d8582860161291e565b925050602083013567ffffffffffffffff811115612d7e57612d7d61286d565b5b612d8a85828601612d0a565b9150509250929050565b60008060408385031215612dab57612daa612868565b5b6000612db985828601612893565b925050602083013567ffffffffffffffff811115612dda57612dd961286d565b5b612de685828601612d0a565b9150509250929050565b600081519050919050565b600082825260208201905092915050565b6000819050602082019050919050565b612e2581612a68565b82525050565b612e34816128f5565b82525050565b612e4381612872565b82525050565b606082016000820151612e5f6000850182612e1c565b506020820151612e726020850182612e2b565b506040820151612e856040850182612e3a565b50505050565b6000612e978383612e49565b60608301905092915050565b6000602082019050919050565b6000612ebb82612df0565b612ec58185612dfb565b9350612ed083612e0c565b8060005b83811015612f01578151612ee88882612e8b565b9750612ef383612ea3565b925050600181019050612ed4565b5085935050505092915050565b60006020820190508181036000830152612f288184612eb0565b905092915050565b60008060408385031215612f4757612f46612868565b5b600083013567ffffffffffffffff811115612f6557612f6461286d565b5b612f7185828601612d0a565b9250506020612f828582860161291e565b9150509250929050565b7f4e487b7100000000000000000000000000000000000000000000000000000000600052602260045260246000fd5b60006002820490506001821680612fd357607f821691505b602082108103612fe657612fe5612f8c565b5b50919050565b600081905092915050565b60008190508160005260206000209050919050565b6000815461301981612fbb565b6130238186612fec565b9450600182166000811461303e576001811461305357613086565b60ff1983168652811515820286019350613086565b61305c85612ff7565b60005b8381101561307e5781548189015260018201915060208101905061305f565b838801955050505b50505092915050565b600061309b828461300c565b915081905092915050565b7f556e617574686f72697a656420726f6c65000000000000000000000000000000600082015250565b60006130dc60118361297e565b91506130e7826130a6565b602082019050919050565b6000602082019050818103600083015261310b816130cf565b9050919050565b7f4f6e6c792063726561746f722063616e20617070726f76650000000000000000600082015250565b600061314860188361297e565b915061315382613112565b602082019050919050565b600060208201905081810360008301526131778161313b565b9050919050565b7f4d75737420626520746573746564206669727374000000000000000000000000600082015250565b60006131b460148361297e565b91506131bf8261317e565b602082019050919050565b600060208201905081810360008301526131e3816131a7565b9050919050565b7f4e6f7420796f757220636f6d706f6e656e740000000000000000000000000000600082015250565b600061322060128361297e565b915061322b826131ea565b602082019050919050565b6000602082019050818103600083015261324f81613213565b9050919050565b7f4e6f7420696e204f726465726564207374617465000000000000000000000000600082015250565b600061328c60148361297e565b915061329782613256565b602082019050919050565b600060208201905081810360008301526132bb8161327f565b9050919050565b7f4c616220616c72656164792061737369676e6564000000000000000000000000600082015250565b60006132f860148361297e565b9150613303826132c2565b602082019050919050565b60006020820190508181036000830152613327816132eb565b9050919050565b7f4e6f7420726561647920666f722064656c697665727900000000000000000000600082015250565b600061336460168361297e565b915061336f8261332e565b602082019050919050565b6000602082019050818103600083015261339381613357565b9050919050565b7f436f6d706f6e656e74206d75737420626520696e7374616c6c6564206669727360008201527f7420746f2064656c6976657220697420746f20736f6d656f6e65000000000000602082015250565b60006133f6603a8361297e565b91506134018261339a565b604082019050919050565b60006020820190508181036000830152613425816133e9565b9050919050565b7f436f6d706f6e656e7420646f6573206e6f742065786973740000000000000000600082015250565b600061346260188361297e565b915061346d8261342c565b602082019050919050565b6000602082019050818103600083015261349181613455565b9050919050565b7f436f6d706f6e656e74206d75737420626520617070726f766564206669727374600082015250565b60006134ce60208361297e565b91506134d982613498565b602082019050919050565b600060208201905081810360008301526134fd816134c1565b9050919050565b7f4f6e6c79206f776e65722063616e2061737369676e20726f6c65730000000000600082015250565b600061353a601b8361297e565b915061354582613504565b602082019050919050565b600060208201905081810360008301526135698161352d565b9050919050565b60008190508160005260206000209050919050565b60006020601f8301049050919050565b600082821b905092915050565b6000600883026135d27fffffffffffffffffffffffffffffffffffffffffffffffffffffffffffffffff82613595565b6135dc8683613595565b95508019841693508086168417925050509392505050565b6000819050919050565b600061361961361461360f84612872565b6135f4565b612872565b9050919050565b6000819050919050565b613633836135fe565b61364761363f82613620565b8484546135a2565b825550505050565b600090565b61365c61364f565b61366781848461362a565b505050565b5b8181101561368b57613680600082613654565b60018101905061366d565b5050565b601f8211156136d0576136a181613570565b6136aa84613585565b810160208510156136b9578190505b6136cd6136c585613585565b83018261366c565b50505b505050565b600082821c905092915050565b60006136f3600019846008026136d5565b1980831691505092915050565b600061370c83836136e2565b9150826002028217905092915050565b61372582612973565b67ffffffffffffffff81111561373e5761373d612c0d565b5b6137488254612fbb565b61375382828561368f565b600060209050601f8311600181146137865760008415613774578287015190505b61377e8582613700565b8655506137e6565b601f19841661379486613570565b60005b828110156137bc57848901518255600182019150602085019450602081019050613797565b868310156137d957848901516137d5601f8916826136e2565b8355505b6001600288020188555050505b505050505050565b7f4c6162206e6f742061737369676e656400000000000000000000000000000000600082015250565b600061382460108361297e565b915061382f826137ee565b602082019050919050565b6000602082019050818103600083015261385381613817565b9050919050565b7f4e6f742061737369676e656420746f207468697320636f6d706f6e656e740000600082015250565b6000613890601e8361297e565b915061389b8261385a565b602082019050919050565b600060208201905081810360008301526138bf81613883565b9050919050565b7f436f6d706f6e656e74206d75737420626520696e20437265617465642073746160008201527f7465000000000000000000000000000000000000000000000000000000000000602082015250565b600061392260228361297e565b915061392d826138c6565b604082019050919050565b6000602082019050818103600083015261395181613915565b9050919050565b600060608201905061396d6000830186612a03565b61397a6020830185612a03565b818103604083015261398c81846129ca565b9050949350505050565b7f4e487b7100000000000000000000000000000000000000000000000000000000600052601160045260246000fd5b60006139d082612872565b91507fffffffffffffffffffffffffffffffffffffffffffffffffffffffffffffffff8203613a0257613a01613996565b5b600182019050919050565b7f496e73756666696369656e7420636f6e74726163742062616c616e6365000000600082015250565b6000613a43601d8361297e565b9150613a4e82613a0d565b602082019050919050565b60006020820190508181036000830152613a7281613a36565b9050919050565b6000604082019050613a8e6000830185612a89565b613a9b6020830184612a89565b939250505056fea26469706673582212200dac3ef2ed08fe8791d5268fadfd40063d99b68e27b4efeb3c76814c07258b9564736f6c634300081c0033",
  "linkReferences": {},
  "deployedLinkReferences": {}
}